:020000040800F2
:10000000F00900200101000849370008692D0008A7
:10001000313700086D130008C93D000800000000DA
:100020000000000000000000000000007937000818
:1000300071130008000000004D3700088D370008DC
:100040001B0100081B0100081B0100081B01000820
:100050001B0100081B0100081B0100081B01000810
:100060001B0100081B0100081B0100081B01000800
:100070001B0100081B0100081B0100081B010008F0
:100080001B0100081B0100081B0100081B010008E0
:100090001B0100081B0100081B0100081B010008D0
:1000A0001B0100081B0100081B0100081B010008C0
:1000B0001B0100081B0100081B0100081B010008B0
:1000C0001B0100081B0100081B0100081B010008A0
:1000D0001B010008B93D00081B0100081B010008B6
:1000E0001B0100081B0100081B010008DFF80CD0F1
:1000F00000F0F8FB0048004739450008F0090020EF
:100100000648804706480047FEE7FEE7FEE7FEE7B1
:10011000FEE7FEE7FEE7FEE7FEE7FEE7FD37000845
:10012000ED000008202A04DB203A21FA02F0002129
:10013000704721FA02F3D040C2F1200291400843F7
:1001400019467047D2B201E000F8012B491EFBD2DC
:1001500070470022F6E710B513460A4604461946D2
:10016000FFF7F0FF204610BDF0B480EA0102D40F83
:100170004200B2EB410F02D20246084611464A0045
:1001800042D0C30DDDB2C1F3C752AD1A202D35DA0E
:10019000C1F3160141F4000204B15242C5F1200638
:1001A00002FA06F12A411044B3EBD05F23D0C4B168
:1001B000012DA0EBC35009DCF0BC4FF0004202EA75
:1001C000C352DBB200F5000000F099BA400000F124
:1001D000807000EBC350A0F1807040EAD1704900FC
:1001E00009E0490841EAC071A0EBC35000F50000E6
:1001F000400800EBC350F0BC00F078BA6142012225
:1002000002EB4101001BF6E7F0BC704781F00041B2
:10021000AAE780F00040A7E780EA010210B502F0EB
:100220000043400022D04A001FD0010E01EB1261B2
:10023000C0F35600C2F3560240F4000042F400023C
:10024000A0FB022000047F39140400D0401C50EAB7
:10025000124001D44000491EC2B20C0604EBD0107B
:10026000401C4008802A02D003E0002010BD20F08E
:100270000100002900DA0020184310BD30B480EAE4
:10028000010202F0004530F0004221F0004013D09E
:1002900090B1C30DD40DC2F31601C0F31600E41AD9
:1002A00041F4000140F400027D34914201D3641C0A
:1002B00000E04900002C02DA30BC002070474FF407
:1002C00000000023914201D3891A034340084FEAFA
:1002D0004101F7D151B1914202D14FF0004105E007
:1002E00002D24FF0010101E06FF0010103EBC450B5
:1002F000284430BC00F0FAB92DE9FE4F804681EA6F
:100300000300C00F0C46009021F0004123F000458F
:10031000B8EB0200A94105D24046214690461C4652
:100320000B46024623F00040104347D0270DC7F389
:100330000A00C3F30A510290401A019040286BDA78
:10034000C3F3130040F4801B0098924620B10023B1
:10035000D2EB030A63EB0B0B01985946C0F1400244
:10036000504600F0A2F906460D4650465946019AFD
:1003700000F0AAF910EB08006141002487EA11524D
:1003800084EAE7731A4340D0009A62B3019A012AC3
:100390004FEA075215DC001B61EB02014FF00042EF
:1003A00002EA0752CDE90042001C41F580113246B5
:1003B0002B4600F0E1F903B0BDE8F08F404621463E
:1003C000F9E7001B61EB0201001C41F580130018E6
:1003D0005B412018A2F5001747EB030140EAD570F6
:1003E000B6196D4111E06D084FEA360645EAC07551
:1003F0004FEA0752001B61EB0201001C41F580111E
:1004000049084FEA30000019514132462B4603B0EB
:10041000BDE8F04F00F0A1B9009801224000002390
:10042000D0EB020263EBE073009821464FEAE074E0
:10043000B8EB000061EB0401E9E783F000435BE700
:1004400081F0004158E72DE9FE4F81EA030404F0F2
:10045000004421F0004100944FF0000B23F00043D2
:1004600050EA01045ED052EA03045BD0C3F30A549D
:10047000C1F30A552C44A4F2F3340194A0FB0254B6
:10048000C1F3130141F48011C3F3130343F4801348
:1004900001FB024400FB034E840A970A44EA81549C
:1004A00047EA8357A4FB076802958D0A05FB078579
:1004B0004FEA932C04FB0C542705029D4FEA065883
:1004C00047EA1637B5EB08056EEB070C870E920E60
:1004D00047EA811742EA8312A7FB0201B6EB0B0140
:1004E00064EB00042B0D43EA0C335E1844EB1C5004
:1004F000DA465146E7FB0201C5F313044FEA0B331A
:1005000043EA14534FEA0432019C43EA0603A4F180
:100510000C040294009CCDE900B400F02DF903B066
:10052000BDE8F08F00200146F9E72DE9F04D81EAA2
:10053000030404F0004B21F0004514464FF0000A7C
:1005400023F0004150EA050220D054EA01021DD0F8
:10055000C5F30A570246C5F31303C1F31300C1F3F1
:100560000A5640F4801543F48013A7EB0608101BCD
:10057000D64608F2FD3873EB050002D308F10108F6
:1005800001E092185B41B8F1000F03DA0020014648
:10059000BDE8F08D00204FF48011064684460EE041
:1005A000171B73EB050705D3121B63EB050306430B
:1005B0004CEA010C49084FEA300092185B4150EABE
:1005C0000107EDD152EA030012D082EA040083EA67
:1005D0000501084305D0101BAB4106D201220023C0
:1005E00006E000224FF0004302E06FF001025310DA
:1005F0001AEB06004CEB085110EB0A0041EB0B0123
:10060000BDE8F04D00F0A9B8C10F80EAE0700844E1
:10061000CA079623002100F072B800F0004220F0D3
:100620000040C10DC0F3160040F400007F2901DA3C
:1006300000207047962903DCC1F19601C84001E013
:1006400096398840002AF4D04042704700F00042BA
:1006500030F000400AD0C10D01F56071C0F3160002
:1006600042EA0151C2084007114370470020014689
:10067000704701F0004330B421F0004150EA01021C
:1006800006D00A0DA2F56072C1F31301002A02DC44
:1006900030BC00207047440F44EAC104C100E01898
:1006A00030BC00EBC25000F021B8202A04DB203A15
:1006B00000FA02F1002070479140C2F1200320FAB5
:1006C00003F3194390407047202A06DBCB17203AEA
:1006D00041FA02F043EAE07306E041FA02F3D04047
:1006E000C2F1200291400843194670470029A8BF73
:1006F0007047401C490008BF20F00100704710B44B
:10070000B0FA80FC00FA0CF050EA010404BF10BCFF
:10071000704749B1CCF1200421FA04F411FA0CF12C
:1007200018BF012121430843A3EB0C01CB1D4FEA65
:1007300000614FEA102042BF002010BC704700EB60
:10074000C35010440029A4BF10BC7047401C49008E
:1007500008BF20F0010010BC704710B5141E73F1E3
:10076000000408DA401C41F1000192185B411A4371
:1007700001D120F0010010BD2DE9F04D92469B46BD
:1007800011B1B1FA81F202E0B0FA80F22032904663
:10079000FFF78BFF04460F4640EA0A0041EA0B01CF
:1007A00053465A46084313D0114653EA010019D064
:1007B000C8F140025046FFF7B5FC05460E465046CC
:1007C00059464246FFF771FF084305D0012004E077
:1007D00020463946BDE8F08D0020054346EAE07624
:1007E0002C4337430A986305E40AA0EB0800002273
:1007F000FD0A44EA47540A3002D500200146E9E7E1
:10080000010510196941DDE9084500196941BDE894
:10081000F04DA2E770B521F0004303430CD0C1F3C3
:100820000A550024D5EB040564EB0403D617AD1A72
:10083000B34102DB0020014670BD201841EB02519C
:1008400070BD2DE9F04D00231A461B1A8A4103DBC7
:1008500000200146BDE8F08DC1F30A52C1F3130137
:1008600041F480154FF0000BD10702D100186D4103
:10087000521E0027044640F2FF11384601EB620A7F
:100880003E468046024600204FF48011FFF74AFCA6
:10089000C2197141BB1846EB0100B4EB030C75EBB8
:1008A000000C04D3E41A65EB000517460E46241924
:1008B00008F101006D4180463428E3DDF91946EB6B
:1008C0000600091BA84103D24FF0FF32134601E096
:1008D000002213461BEB070046EB0A51BDE8F04D22
:1008E000FFF73BBF064C074D06E0E06840F0010310
:1008F00094E8070098471034AC42F6D3FFF7FAFBB0
:1009000080490008A04900080FB5B1B0FE48016851
:100910000068FFF781FC1D90FC480168FA480068F8
:10092000FFF77AFC1C90FA480168F7480068FFF767
:1009300073FC1B90F7480168F3480068FFF76CFCF4
:100940001A90F24801680068FFF766FC1990F048B9
:100950000168EE480068FFF75FFC1890ED480168F9
:10096000EA480068FFF758FC1790E94801680068FA
:10097000FFF752FC1690E7480168E5480068FFF76A
:100980004BFC1590E34801680068FFF745FC1490A4
:1009900037990846FFF740FC0E9036990846FFF756
:1009A0003BFC0C9034990846FFF736FC0B900C99F1
:1009B000FFF7DAFB0D900E99FFF7D6FB0F90FFF7CC
:1009C00045FECDE9100103F031FFCDE91201FFF73B
:1009D00050FE2C902C993498FFF750FC34902C99B1
:1009E0003698FFF74BFC36902C993798FFF746FC6A
:1009F00037903A990846FFF70FFC0E903999084650
:100A0000FFF70AFC0C9038990846FFF705FC0B909D
:100A10000C99FFF7A9FB0D900E99FFF7A5FB0F901E
:100A2000FFF714FECDE9100103F000FFCDE912013C
:100A3000FFF71FFE2C902C993898FFF71FFC389079
:100A40002C993998FFF71AFC39902C993A98FFF7AE
:100A500015FC3A901B991798FFF786FB0C904FF006
:100A600080403A99FFF7D8FB0B900C99FFF7D4FB25
:100A70000D90FFF7EBFDCDE910011A991898FFF7DB
:100A8000C5FB08904FF080403999FFF7C5FB0790F0
:100A90000899FFF7C1FB0990FFF7D8FDCDE90C01DC
:100AA0001498FFF7D3FDCDE904011698FFF7CEFDAA
:100AB0000022994BCDE90001FFF7C2FCCDE902010C
:100AC000DDE90423FFF7B9FCCDE908014FF08040D0
:100AD0003899FFF7A1FB0590FFF7B8FDCDE90601B6
:100AE000DDE90823FFF7AFFCCDE90A01DDE90C23BE
:100AF000FFF702FCCDE90E01DDE91023FFF7FCFB57
:100B0000CDE91201FFF7B5FD2B901C991598FFF761
:100B10007DFB0C904FF080403A99FFF77DFB0B90E6
:100B20000C99FFF779FB0D90FFF790FDCDE91001CF
:100B30001498FFF78BFDCDE904011998FFF786FDA6
:100B40000022754BCDE90001FFF77AFCCDE90201E7
:100B5000DDE90423FFF771FCCDE908014FF0804087
:100B60003999FFF759FB0590FFF770FDCDE90601B4
:100B7000DDE90823FFF767FCCDE90C011A99189805
:100B8000FFF7F2FA08904FF080403899FFF744FBE6
:100B900007900899FFF740FB0990FFF757FDCDE953
:100BA0000A01DDE90C23FFF7A7FBCDE90E01DDE922
:100BB0001023FFF7A1FBCDE91201FFF75AFD2A90A0
:100BC0001698FFF743FDCDE908011998FFF73EFDA0
:100BD0000022514BCDE90401FFF732FCCDE90601BB
:100BE000DDE90823FFF729FCCDE90C014FF0804037
:100BF0003A99FFF711FB0990FFF728FDCDE90A01AB
:100C0000DDE90C23FFF71FFCCDE910011C991598B5
:100C1000FFF7AAFA0A904FF080403999FFF7FCFAE3
:100C200009900A99FFF7F8FA0C901B991798FFF7AB
:100C3000EDFA0A904FF080403899FFF7EDFA0990ED
:100C40000A99FFF7E9FA0B900C99FFF78DFA0D90CE
:100C5000FFF7FCFCCDE90E01DDE91023FFF74CFBAB
:100C6000CDE91201FFF705FD29902A990846FFF703
:100C7000D3FA0E902B990846FFF7CEFA0D900E99F5
:100C8000FFF772FA0F90FFF7E1FCCDE9100103F0D6
:100C9000CDFDCDE91201FFF7ECFC289029982790B3
:100CA0001B991798FFF7B2FA0C904FF080402799E4
:100CB000FFF7B2FA0B900C99FFF7AEFA0D90FFF721
:100CC000C5FCCDE910011498FFF7C0FCCDE908017F
:100CD0001698FFF7BBFC00220F4BCDE90401FFF78C
:100CE000AFFBCDE90601DDE90823FFF7A6FBCDE95F
:100CF0000C014FF080402899FFF78EFA0990FFF71A
:100D0000A5FCCDE90A0109E0100000201400002034
:100D1000180000201C0000200000E03FDDE90C234B
:100D2000FFF791FBCDE90E01DDE91023FFF7E4FAAF
:100D3000CDE91201FFF79DFC239015991C98FFF750
:100D400013FA11904FF080402799FFF765FA109041
:100D50001199FFF761FA13901A991898FFF756FA4C
:100D600011904FF080402899FFF756FA1090119992
:100D7000FFF752FA12901399FFF7F6F9229016989E
:100D8000FFF764FCCDE908011998FFF75FFC00222A
:100D9000FE4BCDE90401FFF753FBCDE90601DDE988
:100DA0000823FFF74AFBCDE90C014FF0804027995B
:100DB000FFF732FA0990FFF749FCCDE90A01DDE9B6
:100DC0000C23FFF740FBCDE9100117991B98FFF7A3
:100DD000CBF90C904FF080402899FFF71DFA0B904B
:100DE0000C99FFF719FA0D90FFF730FCCDE90E01D1
:100DF000DDE91023FFF780FACDE91201FFF739FC96
:100E000021901B991798FFF701FA4FF0804113903A
:100E1000FFF702FA269015991C98FFF7A5F94FF0F5
:100E200080411390FFF7F8F9259019991D98FFF765
:100E3000EDF912901699FFF7E9F913901499FFF75D
:100E400093F9249022993A98FFF7E6F911902199A5
:100E50003998FFF7E1F910901199FFF7D7F913903E
:100E600025993798FFF7D8F9119024993698FFF70C
:100E7000D3F910901199FFF7C9F912901399FFF760
:100E800073F9209021993898FFF7C6F911902399AA
:100E90003A98FFF7C1F910901199FFF7B7F913903D
:100EA00024993498FFF7B8F9119026993798FFF7ED
:100EB000B3F910901199FFF7A9F912901399FFF760
:100EC00053F91F9023993998FFF7A6F911902299A9
:100ED0003898FFF7A1F910901199FFF797F913903F
:100EE00026993698FFF798F9119025993498FFF7CD
:100EF00093F910901199FFF789F912901399FFF760
:100F000033F91E90A2492098FFF786F91390A14863
:100F100001681398FFF728F99E4908609C491F98BB
:100F2000FFF77AF913909C4801681398FFF71CF9B2
:100F30009949086096491E98FFF76EF913909748F3
:100F400001681398FFF710F99449086094482099B4
:100F5000FFF762F912903199FFF706F913908D4867
:100F600001681398FFF700F931908D481F99FFF73A
:100F700053F912903299FFF7F7F8139086480168F9
:100F80001398FFF7F1F8329085481E99FFF744F95E
:100F900012903399FFF7E8F813908048016813988E
:100FA000FFF7E2F833907F48006830907E48006891
:100FB0002F907E4800682E907D4800682D903399D0
:100FC0002D98FFF729F9119032992E98FFF724F9FF
:100FD0000F902F9880F000400D903199FFF71CF989
:100FE0000E900F99FFF712F910901199FFF70EF973
:100FF00070491290FFF710F913903099FFF7B4F889
:101000006849086032992D98FFF706F911903399D5
:101010002E98FFF701F90F90DDE93010FFF7FCF88B
:101020000E900F99FFF7A0F810901199FFF7EEF8C6
:1010300060491290FFF7F0F813902F99FFF794F89A
:10104000594908602D993198FFF7E6F811903399C6
:101050002F98FFF7E1F80F9032993098FFF7DCF8FE
:101060000E900F99FFF7D2F810901199FFF77CF8C6
:1010700050491290FFF7D0F813902E99FFF774F8AB
:101080004A4908602E993198FFF7C6F811903299B5
:101090002F98FFF7C1F80F9033993098FFF7BCF8FD
:1010A0000E900F99FFF760F810901199FFF7AEF8C6
:1010B00040491290FFF7B0F813902D99FFF754F8BC
:1010C0003B490860084601680068FFF7A5F80E90E4
:1010D000364801680068FFF79FF80C9032480168B5
:1010E0000068FFF799F80A902E4801680068FFF73A
:1010F00093F809900A99FFF737F80B900C99FFF7CE
:1011000033F80D900E99FFF72FF80F90FFF79EFA26
:10111000CDE9100103F08AFBCDE91201FFF7A9FA2E
:101120002C9020482C990068FFF7A8F81D4908600A
:101130001D482C990068FFF7A1F81B4908601B485F
:101140002C990068FFF79AF81849086018482C99FC
:101150000068FFF793F816490860084601680068C0
:10116000FFF75AF80A90114801680068FFF754F831
:1011700008900D4801680068FFF74EF8069009488E
:1011800001680068FFF748F8059015E00000E03FAF
:101190006F12033C200000202400002028000020C3
:1011A0000000204110000020140000201800002042
:1011B0001C000020CDCC4C3D0699FEF7D5FF0790D2
:1011C0000899FFF723F809900A99FFF71FF80B9089
:1011D000FFF73CFACDE90E015C4801685C48006805
:1011E000FFF71AF809905B4801685B480068FFF751
:1011F00013F808900999FEF7B7FF4FF080410A9065
:10120000FFF70AF80B90FFF721FACDE90C01DDE9B1
:101210000E2303F0D1F84FF06632504BCDE91001A8
:10122000FFF711F9CDE91201FFF723FA4C490860E5
:10123000474801684FF08040FEF7EEFF0A904548AE
:1012400001680A98FEF7E8FF0C90434801684FF0E8
:101250004040FEF7E1FF0A903C4801680A98FEF71B
:10126000DBFF0B900C99FEF77FFF0D90FFF7EEF977
:10127000CDE90E0102F058FE4FF06632374BCDE952
:101280001001FFF7E0F8CDE91201FFF7F2F9354957
:101290000860304801684FF08040FEF7BDFF0790BE
:1012A0002C4801680798FEF7B7FF09902A480168A3
:1012B0004FF04040FEF7B0FF0790274801680798BD
:1012C000FEF7AAFF08900999FEF7A0FF4FF07E51A4
:1012D0000A90FEF749FF0B90FFF7B8F9CDE90E0130
:1012E0001B4801684FF08040FEF796FF08901A48AF
:1012F00001680898FEF790FF0A90164801684FF0C1
:101300008040FEF789FF0890104801680898FEF7B2
:1013100083FF09900A99FEF727FF0B90FFF796F9D4
:10132000CDE90C01DDE90E2303F046F84FF06632FB
:101330000A4BCDE91001FFF786F8CDE91201FFF75E
:1013400098F90949086035B000BD00001C00002074
:1013500010000020180000201400002066A64C4059
:1013600034000020300000202C00002000BFFEE7E9
:10137000704772B600BFFEE770B50446002594F8CA
:101380002100022803D00420A063012548E0206842
:10139000006820F00E00216808602068006820F0D6
:1013A0000100216808601F492068884201D101209E
:1013B00026E01C4914312068884201D110201FE02A
:1013C000184928312068884201D1801518E0154954
:1013D0003C312068884201D1801411E0114950311C
:1013E0002068884202D14FF4803009E00D49643111
:1013F0002068884202D14FF4801001E04FF08070E5
:10140000084908394860012084F8210000BF002005
:1014100084F8200000BF606B10B12046616B8847E4
:10142000284670BD0800024070B5044600F0A6F9D9
:1014300006462546681C10B104480078054400BFE4
:1014400000F09CF9801BA842FAD370BD5800002020
:101450002DE9F8470346002294466EE14FF001085B
:1014600008FA02F4D1F8008008EA0400A0427DD115
:10147000DFF8DCA2D1F80480A8EB0A09D0453AD005
:1014800014DCB8F1030F50D009DCB8F1000F31D0F3
:10149000B8F1010F1CD0B8F1020F49D120E0B8F12A
:1014A000110F18D0B8F1120F42D11EE0B9F5881F04
:1014B00025D006DCB9F5803F20D0B9F5801F37D1A3
:1014C0001AE0B9F5001F18D0B9F5041F30D117E0A4
:1014D000D1F80CC02DE0D1F80C8008F1040C28E004
:1014E000D1F80C8008F1080C23E0D1F80C8008F149
:1014F0000C0C1EE000BF00BF00BF00BF00BF00BF5C
:10150000D1F80880B8F1000F02D14FF0040C0BE0C5
:10151000D1F80880B8F1010F03D14FF0080C1C611D
:1015200002E04FF0080C5C6103E04FF0000C00E0BB
:1015300000BF00BFFF2801D8984601E003F104086E
:101540004646FF2802D84FEA820803E0A2F10808C5
:101550004FEA88084746D6F800804FF00F0909FA8D
:1015600007F928EA09080CFA07F900E088E048EAD8
:101570000908C6F80080D1F8048008F08058B8F156
:10158000805F7DD100BFDFF8CC81D8F8188048F0AB
:101590000108DFF8C091C9F81880C846D8F818804B
:1015A00008F00108CDF8008000BF00BF4FEAB9384D
:1015B0004FEA920958F829504FEA82784FEA187991
:1015C0004FF00F0808FA09F825EA0805DFF88881C6
:1015D000434502D14FF0000816E0DFF88081434513
:1015E00002D14FF001080FE0DFF87481434502D1CA
:1015F0004FF0020808E0DFF86C81434502D14FF05C
:10160000030801E04FF004084FEA82794FEA1979A4
:1016100008FA09F848EA0505DFF84C814FEA920913
:1016200048F82950D1F8048008F48038B8F5803F94
:101630000AD1DFF83881D8F8008048EA0008DFF8DE
:101640002C91C9F8008009E0DFF82081D8F80080EB
:1016500028EA0008DFF81491C9F80080D1F8048066
:1016600008F40038B8F5003F10D1DFF8008108F128
:101670000408D8F8008048EA0008DFF8F09000E09D
:101680005AE009F10409C9F800800DE0DFF8DC80B8
:1016900008F10408D8F8008028EA0008DFF8CC90A8
:1016A00009F10409C9F80080D1F8048008F4801811
:1016B000B8F5801F0ED1DFF8B48008F10808D8F81B
:1016C000008048EA0008DFF8A49009F10809C9F889
:1016D00000800DE0DFF8948008F10808D8F8008059
:1016E00028EA0008DFF8849009F10809C9F80080A9
:1016F000D1F8048008F40018B8F5001F0ED1DFF807
:101700006C8008F10C08D8F8008048EA0008DFF87F
:101710005C9009F10C09C9F800800DE0DFF84C80FD
:1017200008F10C08D8F8008028EA0008DFF83C909F
:1017300009F10C09C9F80080521CD1F8008028FA80
:1017400002F8B8F1000F7FF489AEBDE8F887000019
:10175000000011100010024000080140000C014080
:101760000010014000140140080001400004014045
:101770000AB1016101E00B04036170470148006890
:10178000704700005000002070B504460CB90120DD
:1017900070BD94F83D0028B9002084F83C00204634
:1017A00000F008FB242084F83D002068006820F049
:1017B00001002168086000F01DFD05465C49606875
:1017C000884206D85B48854201D2012007E000200C
:1017D00005E05948854201D2012000E0002001289F
:1017E00000D1D5E75548B5FBF0F62068406820F0F9
:1017F0003F003043216848604D496068884201D805
:10180000701C07E04FF4967070434FF47A71B0FB90
:10181000F1F0401C2168096A21F03F01084321686A
:10182000086243496068884214D8681E61684900AC
:10183000B0FBF1F0401CC0F30B00042801D20420DF
:101840003DE0681E61684900B0FBF1F0401CC0F348
:101850000B0034E0A06838B9681E616801EB4101F3
:10186000B0FBF1F0401C0AE0681E616801EBC102A8
:1018700002EB0111B0FBF1F0401C40F48040C0F3DA
:101880000B0008B901201AE0A06848B9681E616819
:1018900001EB4101B0FBF1F0401CC0F30B000CE088
:1018A000681E616801EBC10202EB0111B0FBF1F0AF
:1018B000401CC0F30B0040F4804040F4004021681D
:1018C000C9694CF6FF72914308432168C861D4E9A5
:1018D000070108432168096821F0C0010843216815
:1018E0000860D4E9031008432168896848F2FF3290
:1018F0009143084321688860D4E9050108432168C1
:10190000C96821F0FF0108432168C86020680068A9
:1019100040F001002168086000202064202084F845
:101920003D000020206384F83E0000BF30E7000047
:10193000A086010080841E0000093D0040420F0087
:101940002DE9FC5F04460F4690469946DDE90CAB55
:101950000E9EFFF713FF054694F83D00202872D134
:1019600019230122B7492046009501F04FFB10B121
:101970000220BDE8FC9F00BF94F83C00012801D183
:101980000220F6E7012084F83C0000BF20680068D0
:1019900000F0010028B92068006840F001002168CB
:1019A00008602068006820F4006021680860222038
:1019B00084F83D00402084F83E0000202064C4F8F4
:1019C00024A0A4F82AB0608D20859F48E0624B4691
:1019D000424639462046CDE9006501F0E7F908B1F5
:1019E0000120C6E7208D88B900BF00200190206843
:1019F0004069019020688069019000BF00BF2068A5
:101A0000006840F40070216808604BE0208D0128D8
:101A10001AD12068006820F480602168086072B6DE
:101A200000BF002001902068406901902068806913
:101A3000019000BF00BF2068006840F4007021687A
:101A4000086062B62EE0FBE0208D022819D12068E4
:101A5000006840F400602168086072B600BF002092
:101A6000019020684069019020688069019000BF62
:101A700000BF2068006820F480602168086062B6BA
:101A800010E02068006840F480602168086000BFB2
:101A900000200190206840690190206880690190D1
:101AA00000BF00BFBDE0208D032870D8208D012825
:101AB00015D12A463146204601F04DFB08B10120E0
:101AC00057E720680069616A0870606A401C6062BC
:101AD000208D401E2085608D401E6085A1E0208DF8
:101AE00002282CD13346002258492046009501F0A7
:101AF0008DFA08B101203CE772B62068006840F416
:101B000000702168086020680069616A0870606A76
:101B1000401C6062208D401E2085608D401E6085C7
:101B200062B620680069616A0870606A401C606281
:101B3000208D401E2085608D401E608571E03346FB
:101B4000002242492046009501F060FA08B10120C8
:101B50000FE72068006820F480602168086072B692
:101B600020680069616A0870606A401C6062208DAC
:101B7000401E2085608D401E60853346002233491B
:101B80002046009501F042FA10B10120F1E621E073
:101B90002068006840F400702168086020680069CF
:101BA000616A0870606A401C6062208D401E20855A
:101BB000608D401E608562B620680069616A0870A9
:101BC000606A401C6062208D401E2085608D401E32
:101BD000608526E02A463146204601F0BCFA08B16D
:101BE0000120C6E620680069616A0870606A401CCE
:101BF0006062208D401E2085608D401E60852068BB
:101C00004069C0F3800060B120680069616A0870B3
:101C1000606A401C6062208D401E2085608D401EE1
:101C20006085208D00287FF43EAF202084F83D00A1
:101C3000002084F83E0000BF84F83C0000BF98E616
:101C4000022096E6020010000000FFFF04000100E1
:101C50002DE9FC5F04460F4690469946DDE90CAB42
:101C60000E9EFFF78BFD054694F83D0020287DD1A0
:101C7000192301224D492046009501F0C7F910B102
:101C80000220BDE8FC9F00BF94F83C00012801D170
:101C90000220F6E7012084F83C0000BF20680068BD
:101CA00000F0010028B92068006840F001002168B8
:101CB00008602068006820F4006021680860212026
:101CC00084F83D00402084F83E0000202064C4F8E1
:101CD00024A0A4F82AB0608D20853548E0624B46E8
:101CE000424639462046CDE9006501F0FBF808B1CF
:101CF0000120C6E731E02A463146204601F06BFA62
:101D000050B1206C042805D12068006840F40070B0
:101D1000216808600120B4E7606A007821680861E2
:101D2000606A401C6062208D401E2085608D401ED0
:101D3000608520684069C0F3800070B1208D60B17B
:101D4000606A007821680861606A401C6062208DCA
:101D5000401E2085608D401E6085208D0028CAD1E0
:101D60002A463146204601F023F900E01CE050B13C
:101D7000206C042805D12068006840F400702168B8
:101D8000086001207DE72068006840F40070216849
:101D90000860202084F83D00002084F83E0000BF49
:101DA00084F83C0000BF6CE702206AE702001000E4
:101DB0000000FFFF10B586B004460020029003909B
:101DC0000490059038492068884232D100BF3748D6
:101DD000C06940F400103549C8610846C06900F484
:101DE0000010019000BF00BF00BF0846806940F0AE
:101DF000080088610846806900F00800019000BF73
:101E000000BFC0200290122003900320059002A979
:101E10002748FFF71DFB00BF2448C06940F40010AD
:101E20002249C8610846C06900F40010019000BF53
:101E300037E020492068884233D100BF1B48C06981
:101E400040F480001949C8610846C06900F4800068
:101E5000019000BF00BF00BF0846806940F0080045
:101E600088610846806900F00800019000BF00BF4B
:101E70004FF440600290122003900320059002A9C5
:101E80000B48FFF7E5FA00BF0848C06940F480003E
:101E90000649C8610846C06900F48000019000BF8F
:101EA00000BF06B010BD000000540040001002400A
:101EB000000C0140005800400348006803490978BD
:101EC0000844014908607047500000205800002075
:101ED00010B50848006840F010000649086003206B
:101EE00000F0A8F8002000F007F800F02BF8002020
:101EF00010BD00000020024070B504460E48007876
:101F00004FF47A71B1FBF0F00C490968B1FBF0F5C0
:101F1000284600F00BFC08B1012070BD102C07D240
:101F200000222146501E00F047F80548046001E0F9
:101F30000120F2E70020F0E7580000205C000020BC
:101F40005400002008B500BF1148806940F001002E
:101F50000F4988610846806900F00100009000BFC9
:101F600000BF00BF0846C06940F08050C861084605
:101F7000C06900F08050009000BF00BF00BF05495D
:101F8000486820F0E06040F00070486000BF08BD85
:101F9000001002400000014001460846002809DB0D
:101FA00000F01F0301229A4043099B0003F1E02344
:101FB000C3F8002100BF70472DE9F05F80460D4651
:101FC0001646002701F016FF074639462A463346D3
:101FD00001F00700C0F1070ABAF1040F02D94FF06F
:101FE000040A01E0C0F1070AD14600F1040ABAF17F
:101FF000070F02D24FF0000A01E0A0F1030AD44615
:102000004FF0010A0AFA09FAAAF1010A0AEA020AD9
:102010000AFA0CFA4FF0010B0BFA0CFBABF1010BB7
:102020000BEA030B4AEA0B042146404601F0EAFEA4
:10203000BDE8F09F00BF00F00702064B19684FF69D
:10204000FF031940044B0B4343EA0221014B196083
:1020500000BF70470CED00E00000FA0570B50446C3
:102060000D460CB9012070BD5A48006800F0070009
:10207000A8420ED25748006820F00700284355496F
:1020800008600846006800F00700A84201D001205F
:10209000E9E7207800F0020002281DD1207800F046
:1020A0000400042805D14C48406840F4E0604A49E7
:1020B0004860207800F00800082805D146484068AC
:1020C00040F46050444948604348406820F0F000C4
:1020D000A168084340494860207800F0010078B3C7
:1020E0006068012806D13C48006800F4003090B9CF
:1020F0000120B8E76068022806D13748006800F080
:10210000007040B90120AEE73348006800F00200DB
:1021100008B90120A7E73048406820F00300616853
:1021200008432D494860FFF729FB064609E0FFF701
:1021300025FB801B41F28831884202D9032092E7B7
:1021400007E02548406800F00C006168B0EB810FA3
:10215000EDD12048006800F00700A8420ED91D48C4
:10216000006820F0070028431A4908600846006804
:1021700000F00700A84201D0012074E7207800F0A9
:102180000400042807D11448406820F4E060E168A6
:10219000084311494860207800F00800082808D159
:1021A0000D48406820F46050216940EAC1000A49A6
:1021B000486000F03FF808494968C1F30311074A35
:1021C000515CC8400649086006480068FFF794FE65
:1021D000002048E700200240001002407848000834
:1021E0005C00002054000020014800687047000097
:1021F0005C00002000B5FFF7F7FF04494968C1F310
:102200000221034A515CC84000BD0000001002409A
:102210008848000800B5FFF7E7FF04494968C1F3A3
:10222000C221034A515CC84000BD000000100240BA
:1022300088480008F0B585B00FF26C0C9CE8E010FF
:1022400001A8A0E8E0101CA52D680095002100223F
:10225000002300240020194D696801F00C05F5B138
:10226000042D02D0082D19D101E0154819E001AD67
:10227000C1F38346AC5D01F4803555B10F4D6D68F7
:10228000C5F340451DF805200D4D6543B5FBF2F340
:1022900002E00C4D04FB05F3184602E000BF0848BD
:1022A00000BF00BF05B0F0BD020304050607080922
:1022B0000A0B0C0D0E0F101001020000001002405E
:1022C00000127A0000093D00F8B504460CB901205F
:1022D000F8BD207800F00100002878D0F848406868
:1022E00000F00C0004280CD0F548406800F00C0009
:1022F000082811D1F248406800F48030B0F5803FE2
:102300000AD1EF48006800F4003000285FD0606810
:1023100000285CD10120DBE700BF6068B0F5803F9A
:1023200006D1E748006840F48030E549086028E0BD
:10233000606858B9E248006820F48030E0490860DD
:102340000846006820F4802008601AE06068B0F554
:10235000A02F0BD1DA48006840F48020D8490860EB
:102360000846006840F4803008600AE0D4480068FD
:1023700020F48030D24908600846006820F48020AC
:10238000086000BF606888B1FFF7F8F9054606E00D
:10239000FFF7F4F9401B642801D9032098E7C848E7
:1023A000006800F400300028F2D010E0FFF7E6F9F2
:1023B000054606E0FFF7E2F9401B642801D9032037
:1023C00086E7BF48006800F400300028F2D120788A
:1023D00000F00200022857D1B948406800F00C0014
:1023E00050B1B748406800F00C00082818D1B44834
:1023F000406800F4803098B9B148006800F00200ED
:1024000020B12069012801D0012061E7AC480068B3
:1024100020F0F800616940EAC100A949086033E092
:102420002069E8B10120A7490860FFF7A7F9054630
:1024300006E0FFF7A3F9401B022801D9032047E774
:102440009F48006800F002000028F2D09C48006815
:1024500020F0F800616940EAC1009949086013E082
:10246000002098490860FFF789F9054606E0FFF764
:1024700085F9401B022801D9032029E7904800680C
:1024800000F002000028F2D1207800F008000828AF
:102490002DD1A069B8B101208B490860FFF76EF912
:1024A000054606E0FFF76AF9401B022801D9032020
:1024B0000EE78348406A00F002000028F2D00120B5
:1024C00001F046F913E000207F490860FFF756F954
:1024D000054606E0FFF752F9401B022801D9032008
:1024E000F6E67748406A00F002000028F2D1207832
:1024F00000F00400042873D100277148C06900F07F
:10250000805070B900BF6E48C06940F080506C497F
:10251000C8610846C06900F08050009000BF00BF4D
:1025200001276A48006800F48070B0B96748006805
:1025300040F4807065490860FFF720F9054606E021
:10254000FFF71CF9401B642801D90320C0E65F484F
:10255000006800F480700028F2D000BFE068012815
:1025600006D15748006A40F001005549086227E04B
:10257000E06858B95248006A20F0010050490862EA
:102580000846006A20F00400086219E0E0680528A7
:102590000BD14B48006A40F00400494908620846E4
:1025A000006A40F0010008620AE04548006A20F035
:1025B0000100434908620846006A20F004000862EE
:1025C00000BFE068A0B1FFF7D9F8054609E0FFF7C2
:1025D000D5F8401B41F28831884202D9032077E6C2
:1025E00022E03748006A00F002000028EFD012E035
:1025F000FFF7C4F8054608E0FFF7C0F8401B41F2BA
:102600008831884201D9032062E62D48006A00F033
:1026100002000028F0D1012F05D12948C06920F01F
:1026200080502749C86100BFE069C8B324484068AA
:1026300000F00C00082860D0E069022848D1002092
:1026400020490866FFF79AF8054606E0FFF796F876
:10265000401B022801D903203AE61948006800F01F
:1026600000700028F2D1206AB0F5803F07D11448ED
:10267000406820F40030A168084311494860D4E95B
:10268000080108430E49496821F4741108430C49B4
:10269000486001200B490866FFF770F8054607E01F
:1026A0003DE0FFF76BF8401B022801D903200FE63D
:1026B0000348006800F000700028F2D02FE000000E
:1026C000001002400000424280044242007000407C
:1026D000002014490866FFF751F8054606E0FFF7A9
:1026E0004DF8401B022801D90320F1E50E4800688F
:1026F00000F000700028F2D111E0E069012800D15B
:10270000E6E50948466806F48031206A814204D132
:1027100006F47011606A814201D00120D8E50020E2
:10272000D6E50000000042420010024070B50446A9
:102730002546681EB0F1807F01D301200FE0681E9E
:102740004FF0E02148610F214FF0FF3001F05AFBBC
:1027500000204FF0E021886107200861002070BD53
:1027600010B5024600BF92F83C00012801D10220BA
:1027700010BD012082F83C0000BF022082F83D001D
:10278000106843681068846823F070030868034386
:1027900024F0800448680443106843601068846033
:1027A000012082F83D0000BF002082F83C0000BFFD
:1027B00000BFDDE710B504460CB9012010BD94F848
:1027C0003D0028B9002084F83C00204600F00CF8B9
:1027D000022084F83D00211D206801F03BF8012013
:1027E00084F83D000020E9E708B5094A01689142F4
:1027F0000DD100BF0749C96941F00201054AD16105
:102800001146C96901F00201009100BF00BF08BD77
:1028100000040040001002402DE9F04104460D463E
:1028200000BF94F83C00012802D10220BDE8F081ED
:10283000012084F83C0000BF022084F83D0020689D
:10284000866826F0770626F47F462068866028682A
:10285000502833D00CDC202850D004DC00284BD08A
:10286000102851D149E0302849D040284CD139E0D6
:1028700060282DD0702807D0B0F5805F03D0B0F568
:10288000005F41D10DE040E0D5E902136A6820689D
:1028900001F01AF82068866846F07706206886609E
:1028A00033E0D5E902136A68206801F00DF820686A
:1028B000806840F480402168886026E0EA686968A2
:1028C000206801F0D1F85021206801F008F81CE0E0
:1028D000EA686968206801F0DAF86021206800F091
:1028E000FEFF12E0EA686968206801F0BDF8402147
:1028F000206800F0F4FF08E000BF00BF00BF2968B7
:10290000206800F0ECFF00E000BF00BF012084F869
:102910003D0000BF002084F83C0000BF00BF85E7F9
:1029200010B586B0044600200290039004900590F4
:102930000D492068884215D100BF0C48806940F0DD
:1029400008000A4988610846806900F00800019083
:1029500000BF00BF022002900390059002A9044826
:10296000FEF776FD06B010BD0004004000100240E6
:10297000000C014070B504460D46164600BF94F8A1
:102980003C00012801D1022070BD012084F83C00E8
:1029900000BF022084F83D0036B1042E1BD0082E63
:1029A00031D00C2E5ED145E02946206800F0A0FF12
:1029B0002068806940F0080021688861206880698B
:1029C00020F0040021688861206880692969084333
:1029D0002168886147E02946206800F0B9FF206837
:1029E000806940F40060216888612068806920F473
:1029F00080602168886120688069296940EA012037
:102A0000216888612FE02946206800F0D5FF206802
:102A1000C06940F008002168C8612068C06920F0E2
:102A200004002168C8612068C069296908432168D9
:102A3000C86118E02946206800F0F2FF2068C069EC
:102A400040F400602168C8612068C06920F480609B
:102A50002168C8612068C069296940EA01202168AD
:102A6000C86100E000BF00BF012084F83D0000BF46
:102A7000002084F83C0000BF00BF85E710B5044685
:102A80000CB9012010BD94F83D0028B9002084F84D
:102A90003C00204600F00CF8022084F83D00211D87
:102AA000206800F0D7FE012084F83D000020E9E70F
:102AB000704770472DE9F047044620680568206894
:102AC000C668206847694FF00008C14605F00F0846
:102AD000B8F1000F0AD105F0200038B106F020004F
:102AE00020B1204601F011F8BDE8F087B8F1000FE1
:102AF0006DD007F0010018B906F49070002866D078
:102B000005F0010030B106F4807018B1E06B40F0C0
:102B10000100E06305F0040030B107F0010018B1D6
:102B2000E06B40F00200E06305F0020030B107F016
:102B3000010018B1E06B40F00400E06305F008000C
:102B400030B107F0010018B1E06B40F00800E0631D
:102B5000E06B68B305F0200028B106F0200010B14A
:102B6000204600F0D2FF20684069C0F38019E06B76
:102B700000F0080010B9B9F1000F22D0204600F093
:102B8000A4FF2068406900F04000B0B120684069AF
:102B900020F0400021684861606B50B11748616BBC
:102BA0004863606BFEF7E8FB10B1606B416B8847D0
:102BB0000CE02046FFF77DFF08E02046FFF779FF95
:102BC00004E02046FFF775FF0020E0638CE705F086
:102BD000800030B106F0800018B1204601F0B8F84E
:102BE00082E705F0400030B106F0400018B1204601
:102BF00000F07BFF78E700BF76E70000B73A0008F7
:102C000010B504460CB9012010BDA06900B100E068
:102C100000BF94F8390028B9002084F83800204615
:102C200000F028F8242084F839002068C06820F4D7
:102C300000502168C860204600F0BAFF2068006993
:102C400020F49040216808612068406920F02A0043
:102C5000216848612068C06840F400502168C8605D
:102C60000020E063202084F8390084F83A00002036
:102C7000CAE7000010B586B0044600200290039019
:102C8000049005901E492068884236D100BF1D4837
:102C9000806940F480401B4988610846806900F4DF
:102CA0008040019000BF00BF00BF0846806940F02F
:102CB000040088610846806900F00400019000BFAC
:102CC00000BF48150290022003900320059002A93E
:102CD0000D48FEF7BDFB4FF480600290002003908A
:102CE000049002A90848FEF7B3FB002211462520F4
:102CF000FFF762F92520FFF74FF906B010BD00007D
:102D0000003801400010024000080140704710B533
:102D1000034693F83900202823D101B10AB90120D4
:102D200010BD00BF93F83800012801D10220F7E759
:102D3000012083F8380000BF19629A84DA840020E9
:102D4000D863212083F8390000BF002083F83800C1
:102D500000BF1868C06840F080001C68E060002078
:102D6000DEE70220DCE7704700BFFEE701460868A7
:102D70004069C0F38020B0B16FF480600A68506190
:102D800000200863202081F83D00002081F83E00EB
:102D9000086C40F00400086400BF002081F83C008B
:102DA00000BF012070470020FCE700002DE9F84338
:102DB00004460F4615469946DDE9088620680068F6
:102DC00040F48060216808602068006840F48070EA
:102DD00021680860434600224FF00111204600960A
:102DE00000F014F910B10120BDE8F88307F0FE00EF
:102DF00021680861334642463949204600F049F9C6
:102E000008B10120F0E700BF002000902068406971
:102E1000009020688069009000BF00BF32464146A4
:102E2000204600F0D8F950B1206C042805D1206864
:102E3000006840F40070216808600120D4E7B9F10F
:102E4000010F03D1E8B22168086117E0C5F307203C
:102E50002168086132464146204600F0BCF950B175
:102E6000206C042805D12068006840F400702168B7
:102E700008600120B8E7E8B221680861324641469F
:102E8000204600F0A8F950B1206C042805D1206834
:102E9000006840F40070216808600120A4E7206801
:102EA000006840F4807021680860434600224FF0BB
:102EB00001112046009600F0A9F808B1012093E71F
:102EC000F8B240F0010021680861334642460449E7
:102ED000204600F0DEF808B1012085E7002083E7F6
:102EE000020001002DE9F84304468846154699463C
:102EF000DDE908672068006840F480702168086098
:102F0000334600224FF001112046009700F07EF872
:102F100010B10120BDE8F88308F0FE0021680861C7
:102F20003B4632462149204600F0B3F808B1012063
:102F3000F0E700BF00200090206840690090206802
:102F40008069009000BF00BF3A463146204600F03D
:102F500042F950B1206C042805D12068006840F483
:102F60000070216808600120D4E7B9F1010F03D196
:102F7000E8B22168086117E0C5F3072021680861FD
:102F80003A463146204600F026F950B1206C04281C
:102F900005D12068006840F40070216808600120B5
:102FA000B8E7E8B2216808610020B3E70200010039
:102FB00070B504460D46164620E02046FFF7D6FEC3
:102FC00008B1012070BD681CC0B1FEF7D7FB801BA3
:102FD000A84200D895B900202063202084F83D0045
:102FE000002084F83E00206C40F02000206400BFE8
:102FF000002084F83C0000BF0120E3E7206840691E
:10300000C0F380000028D8D00020DBE72DE9F04194
:1030100004460D4617461E46DDF818801CE0701C5D
:10302000D0B1FEF7ABFBA0EB0800B04200D89EB9D0
:1030300000202063202084F83D00002084F83E001A
:10304000206C40F02000206400BF002084F83C0089
:1030500000BF0120BDE8F081C5F3074001280AD177
:1030600020684069A9B20840A9B2884201D1012074
:103070000BE0002009E020688069A9B20840A9B2ED
:10308000884201D1012000E00020B842C7D00020D2
:10309000E0E72DE9F04104460D4616461F463DE0A7
:1030A00020684069C0F38020E8B12068006840F4DF
:1030B0000070216808606FF480602168486100201A
:1030C0002063202084F83D00002084F83E00206C1E
:1030D00040F00400206400BF002084F83C0000BFE2
:1030E0000120BDE8F081701CC0B1FEF747FBC01B9A
:1030F000B04200D896B900202063202084F83D001B
:10310000002084F83E00206C40F02000206400BFC6
:10311000002084F83C0000BF0120E2E7C5F307402F
:1031200001280AD120684069A9B20840A9B28842A2
:1031300001D101200BE0002009E020688069A9B2DC
:103140000840A9B2884201D1012000E000200028F7
:10315000A6D00020C5E770B504460D46164632E0FD
:1031600020684069C0F30010A0B16FF01000216822
:10317000486100202063202084F83D00002084F86E
:103180003E00206C206400BF002084F83C0000BF9B
:10319000012070BDFEF7F2FA801BA84200D895B955
:1031A00000202063202084F83D00002084F83E00A9
:1031B000206C40F02000206400BF002084F83C0018
:1031C00000BF0120E5E720684069C0F380100028B7
:1031D000C6D00020DDE770B504460D46164620E057
:1031E0002046FFF7C3FD08B1012070BD681CC0B1C7
:1031F000FEF7C4FA801BA84200D895B900202063CE
:10320000202084F83D00002084F83E00206C40F02F
:103210002000206400BF002084F83C0000BF012093
:10322000E3E720684069C0F3C0100028D8D0002030
:10323000DBE70000FEB504460D4616461F46022099
:1032400001232A462146CDE9006702900148FEF796
:1032500077FBFEBD78000020FEB504460D461646FD
:103260001F46022001232A462146CDE9006702902D
:103270000148FEF765FBFEBDCC00002037B584B0E9
:1032800004460D460220012106AA0B46CDE9002185
:1032900002902A4621460248FEF7DAFC07B030BD0C
:1032A0007800002037B584B004460D460220012185
:1032B00006AA0B46CDE9002102902A462146024883
:1032C000FEF7C6FC07B030BDCC00002010B5702161
:1032D000002000F052FA2021012000F04EFA0021D7
:1032E000022000F04AFA10BD10B50E23264A3B21F9
:1032F000D020FFF79FFF244840782349097800EB4E
:10330000012022490988401A00B2214908801E483C
:10331000C0781D49897800EB01201E490988401AB0
:1033200000B21D490880184840791749097900EB17
:1033300001201A490988401A00B219490880124828
:10334000407A1149097A00EB012016490988401A90
:1033500000B2154908800C48C07A0B49897A00EB05
:10336000012012490988401A00B211490880064814
:10337000407B0549097B00EB01200E490988401A72
:1033800000B20D49088010BDE0010020440000207B
:1033900038000020460000203A00002048000020AD
:1033A0003C0000204A0000203E0000204C0000208D
:1033B000400000204E0000204200002008B5002000
:1033C000009000BF80226B21D020FFF757FF3220F2
:1033D000FEF72AF801226B21D020FFF74FFF0123CF
:1033E0006A467521D020FFF725FF9DF8000000F008
:1033F0007E0000909DF80000682800D0E2E70022DF
:103400001921D020FFF73AFF00221A21D020FFF720
:1034100035FF00221B21D020FFF730FF00221C21A6
:10342000D020FFF72BFF08BD10B586B018216846E5
:10343000FCF78FFE00242AE03220FDF7F5FFFFF7AE
:1034400053FF2E49B1F900100098084400902C4910
:10345000B1F900100198084401902A49B1F900100F
:103460000298084402902849B1F9001003980844D2
:1034700003902649B1F900100498084404902449A7
:10348000B1F90010059808440590601C84B2802CA6
:10349000D2DB0098C11700EB5161C91109B21D4A76
:1034A00011800198C11700EB5161C91109B21A4A84
:1034B00011800298C11700EB5161C911A1F57C512F
:1034C000FF3909B2154A11800398C11700EB516109
:1034D000C91109B2124A11800498C11700EB516159
:1034E000C91109B20F4A11800598C11700EB51614B
:1034F000C91109B20C4A118006B010BD3800002075
:103500003A0000203C0000203E0000204000002047
:103510004200002044000020460000204800002017
:103520004A0000204C0000204E00002000B585B06D
:103530000020019002900390049000BF244880690D
:1035400040F01000224988610846806900F01000B0
:10355000009000BF00BF00BF0846806940F0200017
:1035600088610846806900F02000009000BF00BF1D
:1035700000BF0846806940F00800886108468069FD
:1035800000F00800009000BF00BF00BF084680693F
:1035900040F0040088610846806900F00400009053
:1035A00000BF00BF00224FF400510A48FEF7E0F8C8
:1035B0004FF400500190012002900020039002205F
:1035C000049001A90348FDF743FF05B000BD0000CA
:1035D000001002400010014010B50B480B49086074
:1035E0000B484860002109488160C1604FF4804168
:1035F0000161002141618161C1610162FEF7C4F88E
:1036000008B1FDF7B6FE10BD005400407800002060
:10361000801A060010B50B480B4908600B4848603B
:10362000002109488160C1604FF48041016100219F
:1036300041618161C1610162FEF7A6F808B1FDF741
:1036400098FE10BD00580040CC000020801A0600F3
:1036500000B58DB0002009900A900B900C90079057
:1036600008901C216846FCF774FD21482149086038
:1036700040F2CF20486000211E48816040F2CF71A7
:10368000C160002101618161FFF794F808B1FDF785
:1036900070FE4FF48050099009A91648FFF7BCF856
:1036A00008B1FDF766FE1348FFF7E8F908B1FDF72A
:1036B00060FE00200790089007A90E48FFF750F819
:1036C00008B1FDF756FE6020009040F2DC500190FA
:1036D0000020029004900C2269460648FFF74AF940
:1036E00008B1FDF746FE0348FFF71AF90DB000BD1B
:1036F000000400402001002010B50B480B49086071
:103700004FF4E1304860002108488160C1600161E8
:103710000C21416100218161C161FFF771FA08B19B
:10372000FDF727FE10BD00000038014060010020B9
:1037300000BFFEE710B50623024A03213C20FFF735
:103740008BFD10BD0800002000BFFEE770470000A1
:1037500008B508490968C9084FF47A72B1FBF2F15B
:103760004143009100BF00BF00994A1E009200290A
:10377000F9D108BD5C000020704770B504460D46C5
:103780002A4621463C20FFF78DFD70BD10B5FEF79F
:1037900093FB10BD00B58FB0282105A8FCF7D9FC1C
:1037A00014216846FCF7D5FC012005900004069022
:1037B000002007900120099002200C90C1030D9178
:1037C0004FF4E0110E9105A8FEF77EFD08B1FDF75C
:1037D000D0FD0F20009002200190002002904FF4B5
:1037E000806003900020049002216846FEF736FCBA
:1037F00008B1FDF7BEFD0FB000BD00001148006824
:1038000040F001000F490860084640680E49084032
:103810000C494860084600680C490840094908609E
:103820000846006820F4802008600846406820F4BC
:10383000FE0048604FF41F008860C8030449086018
:1038400070470000001002400000FFF8FFFFF6FE86
:1038500008ED00E010B50268184B984208D0B0F1AE
:10386000804F05D0164B984202D0164B984203D198
:1038700022F070024B681A43104B984208D0B0F106
:10388000804F05D00E4B984202D00E4B984203D188
:1038900022F44072CB681A4322F080034C6943EA59
:1038A000040202608B68C3620B688362034B984218
:1038B00001D10B6903630123436110BD002C01405A
:1038C000000400400008004030B50C46816821F437
:1038D0007F4142EA032525432943816030BD0A46E2
:1038E000816821F0700142F007031943816070473D
:1038F00030B5056A25F001050562026A43688469EE
:1039000024F0700424F003040D682C4322F002021A
:103910008D682A430D4DA84206D100BF22F008024F
:10392000CD682A4322F00402084DA84207D123F4AF
:10393000807323F400734D692B438D692B434360DF
:1039400084614D684563026230BD0000002C014077
:1039500030B5056A25F010050562026A436884697E
:1039600024F4E04424F440740D6844EA052422F071
:1039700020028D6842EA05120E4DA84207D100BF11
:1039800022F08002CD6842EA051222F04002094D81
:10399000A84209D123F4806323F400634D6943EA0C
:1039A00085038D6943EA8503436084614D688563BF
:1039B000026230BD002C014030B5056A25F48075E7
:1039C0000562026A4368C46924F0700424F00304A9
:1039D0000D682C4322F400728D6842EA05220F4DD7
:1039E000A84207D100BF22F40062CD6842EA052256
:1039F00022F48062094DA84209D123F4805323F4B4
:103A000000534D6943EA05138D6943EA051343608A
:103A1000C4614D68C563026230BD0000002C0140E6
:103A200030B5056A25F480550562036A4468C269A9
:103A300022F4E04222F440720D6842EA052223F4A7
:103A400000538D6843EA0533064DA84204D124F49F
:103A500080444D6944EA85144460C2614D68056440
:103A6000036230BD002C014030B50B461446026A9B
:103A7000056A25F001050562816921F0F00141EA3E
:103A8000041122F00A021A438161026230BD30B58E
:103A90000B461446056A25F0100505628169026A25
:103AA00021F4704141EA043122F0A00242EA0312FB
:103AB0008161026230BD70B505466C6A0020E08508
:103AC000E0842046FEF7F5FF70BD0168C96821F467
:103AD00090710268D1600168496921F001010268B2
:103AE0005161202180F83A10704710B504462068D3
:103AF000C06820F040002168C860202084F83900A8
:103B00002046FFF730F9002010BD70B5044694F848
:103B10003A0022284AD1A068B0F5805F13D1A56A87
:103B2000206940B920684068C0F308002880A06A76
:103B3000801CA06219E020684068C0B22880A06A9A
:103B4000401CA06211E0206938B920684068C1B209
:103B5000A26A501CA062117007E02068406800F063
:103B60007F01A26A501CA0621170E08D401E80B2DD
:103B7000E085C8B92068C06820F020002168C860CE
:103B80002068C06820F480702168C860206840699F
:103B900020F0010021684861202084F83A00204686
:103BA000FFF7B4F8002070BD0020FCE70220FAE720
:103BB00070B504462168096921F44051E268114357
:103BC000226811612269A1681143626941EA020514
:103BD0002168C96841F20C62914329432268D1608F
:103BE0002168496921F44071A26911432268516139
:103BF000564A2168914254D1FEF70CFB00EBC001FC
:103C000001EB001162689200B1FBF2F100EBC0021F
:103C100002EB001263689B00B2FBF3F26423B2FB79
:103C2000F3F202EBC20303EB0212A1EB8201322298
:103C300002EB01116422B1FBF2F101F0F00100EBA3
:103C4000C00202EB001263689B00B2FBF3F2642334
:103C5000B2FBF3F201EB021200EBC00101EB001129
:103C600063689B00B1FBF3F100EBC00303EB0013AF
:103C70006668B600B3FBF6F36426B3FBF6F303EB1A
:103C8000C30606EB0313A1EB8301322303EB0111FF
:103C90006423B1FBF3F101F00F011144226891603C
:103CA00053E0FEF7A7FA00EBC00101EB00116268D8
:103CB0009200B1FBF2F100EBC00202EB001263686C
:103CC0009B00B2FBF3F26423B2FBF3F202EBC203FC
:103CD00003EB0212A1EB8201322202EB01116422FA
:103CE000B1FBF2F101F0F00100EBC00202EB0012B7
:103CF00063689B00B2FBF3F26423B2FBF3F201EBC7
:103D0000021200EBC00101EB001163689B00B1FBE4
:103D1000F3F100EBC00303EB00136668B600B3FBDE
:103D2000F6F36426B3FBF6F303EBC30606EB0313CB
:103D3000A1EB8301322303EB01116423B1FBF3F107
:103D400001F00F0111442268916070BD00380140FC
:103D5000014691F8390021282CD18868B0F5805FA0
:103D60000FD10A6A1088C0F308000B685860086910
:103D700018B9086A801C086209E0086A401C0862D9
:103D800005E00B6A581C086218780B685860C88CEC
:103D9000401E80B2C88458B90868C06820F080000E
:103DA0000B68D8600868C06840F040000B68D860B5
:103DB000002070470220FCE710B50248FEF77AFEAB
:103DC00010BD00006001002000BFFEE7490050EA7E
:103DD000C12018BF04204A0D18BF40F0010040F276
:103DE000FF72B2EB515F08BF40F00200012808BF2C
:103DF0000520704702480068C0F3022070470000A9
:103E00000CED00E010B5002804DB0A07130E054A8C
:103E1000135406E00A07140E034A00F00F031B1F99
:103E2000D45410BD00E400E018ED00E02DE9F041AD
:103E30004F1E00EBC7010446D1E9000115461E469E
:103E400037F006020DD02A463346FCF7FCFA7F1EF7
:103E500004EBC703D3E90023FCF74EFA37F0060260
:103E6000F1D1022F25D0042F13D0062F18BFBDE8A3
:103E7000F0812A463346FCF7E6FAD4E90A23FCF738
:103E80003BFA2A463346FCF7DEFAD4E90823FCF76E
:103E900033FA2A463346FCF7D6FAD4E90623FCF770
:103EA0002BFA2A463346FCF7CEFAD4E90423FCF772
:103EB00023FA2A463346FCF7C6FAD4E90223FCF774
:103EC0001BFA2A463346FCF7BEFAD4E90023BDE8C4
:103ED000F041FCF711BA0122FCF79CBCFCF70CBACC
:103EE0000022134610461146FCF71FBB024A002071
:103EF0001107FCF78FBC000001FDFFFF02E008C8BE
:103F0000121F08C1002AFAD170477047002001E053
:103F100001C1121F002AFBD170470000014908604F
:103F200070470000600000202DE9F04D8D4F21F01A
:103F3000004A86B005460C46BA452ADBAAEB0700C4
:103F400028430AD08848824501DC1AD1CDB106B099
:103F50002846BDE8F04DFFF7BEBF844A844B284693
:103F6000FCF771FA07460E46824A834B28462146E3
:103F7000FCF769FA06B03A463346BDE8F04DFCF767
:103F8000BBB90120FFF7CAFF06B0BDE8F04DFFF74F
:103F9000A7BF7A48824542DABAF1795F0BDA284640
:103FA000FFF714FF042808BFFFF7A0FF284606B05C
:103FB0002146BDE8F08D2A460B461046FCF743FA31
:103FC000834602466E480E460B4606217844FFF7AC
:103FD0002DFF5A463346FCF736FA804669488A4632
:103FE0005A46334604217844FFF720FF5A463346A9
:103FF000FCF729FA00223B46FCF77EF902460B4605
:1040000040465146FCF791FA2A462346FCF71BFA34
:1040100006B02A462346BDE8F04DFCF76DB92846A8
:1040200024F0004100223D463B46FCF709FA4FF0E0
:10403000FF32FCF7EFFB0646024653480F460B469D
:1040400006217844FFF7F2FE32463B46FCF7FBF9C7
:10405000CDE900014D4832463B4604217844FFF744
:10406000E5FE32463B46FCF7EEF900222B46FCF714
:1040700043F9834602913046394600F0D7FB80462B
:1040800043480D46504517DCDDE900015A46029BC6
:10409000FCF74BFA42462B46FCF7D5F942462B4635
:1040A000FCF72AF90122FCF7B5FB304A304BFCF74C
:1040B000C4F9304A304B4CE04FF0000A52460B46F0
:1040C0004046FCF719F9CDE9031052462B4610463D
:1040D0001946FCF7B8F932463B46FCF7B1F9DDE981
:1040E0000332FCF722FA06460F46DDE900015A4684
:1040F000029BFCF71AFA83460091012230463946AA
:10410000FCF788FB194A1A4BFCF79AF906460F464A
:10411000012240462946FCF77DFB5A46009BFCF7EE
:1041200092F932463B46FCF788F906460F460122D3
:1041300050462946FCF76EFB0E4DDFF858802A46A4
:104140004346FCF77DF932463B46FCF779F92A46AF
:104150004346FCF775F9002CD8BF81F0004106B04A
:10416000BDE8F08D0000F03F0000F07F075C1433E5
:1041700026A6913C182D4454FB21F93F0000E03F56
:10418000C0080000D60800004A08000060080000CF
:104190003333EF3FFB21E93F2DE9F84F04460D464D
:1041A00021F0004000917349814211DC724988423C
:1041B00001DC06D12CB120462946BDE8F84FFFF7B7
:1041C0008ABE6E48002DCCBF6D496E49BDE8F88FA0
:1041D0006D49814211DD6D498142D8BF4FF0FF36F4
:1041E0006DDD20462946FFF7F1FD042808BFFFF7E3
:1041F0007DFE20462946BDE8F88F6549654F25F0CC
:104200000045814233DD6449814219DD0026324692
:104210004FF0804320462946FCF76EF880468A46D8
:10422000012220462946FCF7F5FA00223B46FCF71E
:1042300004F942465346FCF778F904460D463EE041
:1042400001260022BA463B4620462946FCF754F890
:1042500080460F460022534620462946FCF7EDF8DB
:1042600042463B46FCF761F904460D4627E04B49C0
:1042700081421BDDDFF828A102260022534620469A
:104280002946FCF7E0F800223B46FCF735F880466B
:104290000F460022534620462946FCF7CEF84246F8
:1042A0003B46FCF742F904460D4608E00326224649
:1042B0002B4600203B49FCF738F904460D462246C0
:1042C0002B4610461946FCF7BEF88B46824602463E
:1042D0000B46FCF7B8F807460246334888460B46BB
:1042E00006217844FFF7A2FD52465B46FCF7ABF887
:1042F00082462E488B463A46434605217844FFF7CE
:1043000095FD3A464346FCF79EF802460B46002EC2
:10431000504659460CDAFBF7EFFF22462B46FCF7D6
:1043200092F801B022462B46BDE8F04FFCF788B862
:10433000FBF7E2FF22462B46FCF785F81C4A7A443D
:1043400002EBC603D3E90023FCF777F822462B469D
:10435000FCF773F8174A7A4402EBC603D3E900234B
:10436000FCF76EF8009A002AB8BF81F00041BDE862
:10437000F88F0000000010440000F07F182D445416
:10438000FB21F93FFB21F9BF0000DC3F0000203E8C
:104390000000F33F0000F03F0000E63F00800340D4
:1043A0000000F83F0000F0BF620600002006000099
:1043B000BE050000860500002DE9F04D9446CCF1C5
:1043C000000423F000464CEA0404524F46EAD47439
:1043D0009A46884621F00042BC4206D8454240EA4F
:1043E000050442EAD474BC4204D9BDE8F04D6246EB
:1043F000FFF774BDAAF14055A5F17F6555EA0C049D
:104400000BD0022404EAAA74434DDFF810E144EA19
:10441000D87452EA000B04D00CE0BDE8F04DFFF771
:10442000BBBE002C14BF012CBDE8F08D022C30D097
:10443000032C32D056EA0C0B0AD0BE4220D1BA422D
:1044400009D126F0804622F080423346114617E01B
:1044500000291ADB25E0DFF8C8B0FB44002C04BFBC
:10446000DBE90001BDE8F08D012C02BFDBE90001B2
:1044700081F00041BDE8F08D022C0AD0032C0CD055
:10448000BA4212D1B8F1000F0BDA23482549BDE832
:10449000F08D28462449BDE8F08D28467146BDE8D8
:1044A000F08D1D482149BDE8F08D921B12153C2A64
:1044B000C4BF19481D490EDCBAF1000FBEBF12F18E
:1044C0003C0F0020014606DB6246FCF72EF821F087
:1044D0000041FFF761FE002C08BFBDE8F08D012C04
:1044E00004BF81F00041BDE8F08D114A114B022C50
:1044F00007D0FBF7A2FF2A46BDE8F04D0A4BFBF7B9
:104500009CBFFBF79AFF2A46BDE8F04D064BFBF730
:1045100097BF00000000F07F182D4454FB2109C014
:104520001A050000FB21F9BFFB210940FB21F93FDF
:10453000075C143326A6A13C90B0FDF7C9FCFFF739
:1045400029F9FEF7F3FFFFF7D7F8FFF781F8FFF738
:1045500043F8FFF75FF84FF4FA70FCF765FFFEF7DA
:104560002DFFFEF761FFFEF7B1FE34E16420FCF79A
:104570005BFFFFF7DFF898480078000200B2964929
:10458000497840EA010694488078000200B29249D6
:10459000C97840EA010A90480079000200B28E49C9
:1045A000497940EA0109FEF79FFE5046FCF72CF8D6
:1045B0000E904846FCF728F80D903046FCF724F89A
:1045C0000C908648B0F90000FCF71EF80B90844868
:1045D000B0F90000FCF718F80A908248B0F9000022
:1045E000FCF712F809908048B0F90000FCF70CF8CD
:1045F0007E490190FBF710FE8346FCF727F807463B
:104600004FF066327A4BFBF790FF0022794BCDE9F1
:104610000201FBF78AFFCDE90401FCF72AF80890B4
:104620007548B0F90000FBF7EFFF70490190FBF708
:10463000F3FD8346FCF70AF807464FF066326C4BF1
:10464000FBF773FF00226B4BCDE90201FBF76DFF17
:10465000CDE90401FCF70DF807906848B0F90000B7
:10466000FBF7D2FF61490190FBF7D6FD8346FBF7CC
:10467000EDFF07464FF066325D4BFBF756FF002219
:104680005C4BCDE90201FBF750FFCDE90401FBF7DC
:10469000F0FF0690DDE90B23DDE90D01CDE90123F3
:1046A000CDE903010A98009006A80FC8FCF72CF981
:1046B0000024AA222146641C51484254FF2221466C
:1046C000641C425403222146641C425407222146A2
:1046D000641C42544B494C480068FBF79DFD07465B
:1046E000FBF79BFF00B24949088008460278214643
:1046F000641C4348425445480088C0F307222146C1
:10470000641C3F4842543F4941480068FBF784FD20
:104710000746FBF782FF00B23E4908800846027850
:104720002146641C364842543A480088C0F30722A8
:104730002046611CCCB232490A54324936480068DE
:10474000FBF76AFD0746FBF768FF00B233490880B4
:10475000084602782046611CCCB229490A542F48E9
:104760000088C0F307222146601CC4B2244842548A
:1047700000222046611CCCB221490A54002028495D
:1047800008702849087000250EE01D48405D244946
:1047900009780844224908702248007809780844BA
:1047A00020490870681CC5B21548C078001DA84291
:1047B000EBDC1B4802782046611CCCB210490A543D
:1047C000184802782046611CCCB20D490A54224692
:1047D0001548FEF79CFAC9E6080000203C000020BE
:1047E0003A00002038000020420000200000FA4378
:1047F00066A64C400000F040400000203E00002033
:10480000640000200000C8422C00002002000020AC
:1048100030000020040000203400002006000020AA
:104820000000002001000020600100202DE9F0417F
:1048300006460F46FCF705F804000D4618BF012098
:10484000284320F00040C0F17F6000F1E040C00F3D
:104850000ED0301C18BF0120384320F00040C0F1BA
:104860007F6000F1E040C00F04BF0120FFF756FB5E
:1048700020462946BDE8F08100000000000000004D
:1048800001020304060708090000000001020304F6
:10489000555555555555C53F7D6FEB0312D6D4BFC1
:1048A0005544880E55C1C93F3B8F68B52882A4BFC7
:1048B00088B20175E0EF493F09F7FD0DE13D023F88
:1048C0004B2D8A1C273A03C0C88A599CE52A004010
:1048D00059018D1B6C06E6BF82922EB1C5B8B33F5D
:1048E0004FBB610567ACDD3F182D4454FB21E93F08
:1048F0009BF681D20B73EF3F182D4454FB21F93FF7
:10490000E2652F227F2B7A3C075C143326A6813C7C
:10491000BDCBF07A8807703C075C143326A6913C27
:10492000C4EB98999999C9BF711623FEC671BCBF93
:104930006D9A74AFF2B0B3BF9AFDDE522DDEADBFFB
:104940002F6C6A2C44B4A2BF0D5555555555D53F13
:10495000FF8300922449C23F6E204CC5CD45B73F2E
:10496000513DD0A0660DB13FEB0D76244B7BA93FA6
:1049700011DA22E33AAD903F000000000000000091
:10498000A04900080000002064000000FC3E000870
:10499000044A0008640000208C0900000C3F000855
:1049A0000000000000000000000000000000000007
:1049B0000000803F00000000000000000000000038
:1049C00000000000000000000000000000000000E7
:1049D00000000000000000000000000000000000D7
:1049E00000000000000000000000000000000000C7
:1049F0000000000010000000010000000024F4008E
:044A000000000000B2
:04000005080000ED02
:00000001FF
